:100000000C942A000C9436060C943F000C943F008C
:100010000C943F000C943F000C943F000C943F0064
:100020000C943F000C943F000C943F000C943F0054
:100030000C943F000C943F000C943F000C943F0044
:100040000C943F000C943F000C943F000C943F0034
:100050000C943F0011241FBECFE5D8E0DEBFCDBF1A
:1000600011E0A0E6B0E0E4E2F5E102C005900D92F7
:10007000A23BB107D9F70E94DD090C94900A0C94B9
:100080000000EF92FF920F931F937B018C0120E001
:1000900030E040E05FE40E94110388238CF0C80147
:1000A000B70120E030E040E05FE40E94B9010E9427
:1000B00041039B01AC01205030404040504806C0F5
:1000C000C801B7010E9441039B01AC01B901CA01FB
:1000D0001F910F91FF90EF900895A0E0B0E0E3E74B
:1000E000F0E00C94590ADC012B01FA019C9192304A
:1000F00008F439C1EB018881823008F433C19430AF
:1001000069F4843009F02FC111969C91119789816F
:10011000981709F428C1A9EAB0E025C1843009F490
:1001200021C18230A9F4923009F01DC19A01AD01BC
:1001300088E0EA010990AE01E90109929E0181502F
:10014000C1F7E201898111969C918923818308C1BD
:10015000923009F407C112962D903C901397EB0151
:100160008A819B811496AD90BD90CD90DC901797BD
:10017000EC80FD800E811F819101281B390BB90194
:1001800037FF04C066277727621B730B6032710547
:100190000CF061C0121613066CF537014801062EEB
:1001A00004C096948794779467940A94D2F721E0D8
:1001B00030E040E050E004C0220F331F441F551FC1
:1001C0006A95D2F721503040404050402E213F21C7
:1001D00040235123211531054105510521F021E02E
:1001E00030E040E050E079018A01E628F72808294C
:1001F00019293CC0232BD1F1260E371E35014601AB
:10020000062E04C096948794779467940A94D2F744
:1002100021E030E040E050E004C0220F331F441FD3
:10022000551F6A95D2F721503040404050402A2156
:100230003B214C215D21211531054105510521F05E
:1002400021E030E040E050E059016A01A628B728DB
:10025000C828D9280BC0821593052CF01C01AA24AC
:10026000BB24650103C0EE24FF24870111969C91F5
:10027000D20111968C91981709F445C0992339F051
:10028000A80197012A193B094C095D0906C0A6017E
:1002900095012E193F09400B510B57FD08C01182E3
:1002A0003382228224833583468357831DC081E0B5
:1002B00081833382228288279927DC01821B930B5A
:1002C000A40BB50B84839583A683B7830DC0220F3F
:1002D000331F441F551F24833583468357838281F0
:1002E000938101979383828324813581468157814D
:1002F000DA01C9010197A109B1098F5F9F4FAF4F83
:10030000BF4328F30BC0918333822282EA0CFB1C8B
:100310000C1D1D1DE482F5820683178383E0808314
:10032000248135814681578157FF1AC0C901AA2708
:1003300097FDA095BA2F81709070A070B0705695FF
:10034000479537952795822B932BA42BB52B848328
:100350009583A683B7838281938101969383828359
:10036000DF0101C0D201CD01CDB7DEB7E2E10C94CF
:10037000750AA0E2B0E0EFEBF1E00C94650A698346
:100380007A838B839C832D833E834F835887E9E058
:10039000EE2EF12CEC0EFD1ECE010196B7010E944F
:1003A00032058E010F5E1F4FCE010596B8010E94E7
:1003B00032058A8991E089278A8BC701B801AE018D
:1003C000475E5F4F0E946D000E945D04A096E6E0CC
:1003D0000C94810AA0E2B0E0E0EFF1E00C94650A31
:1003E00069837A838B839C832D833E834F835887D5
:1003F000F9E0EF2EF12CEC0EFD1ECE010196B701B7
:100400000E9432058E010F5E1F4FCE010596B80186
:100410000E943205C701B801AE01475E5F4F0E94DE
:100420006D000E945D04A096E6E00C94810AA0E2B3
:10043000B0E0EDE1F2E00C94590A69837A838B8392
:100440009C832D833E834F835887CE010196BE0146
:10045000675F7F4F0E943205CE010596BE016F5E39
:100460007F4F0E9432059985923088F089898230C9
:10047000C8F0943019F4823051F404C0843029F467
:10048000923081F489EA90E0C6C0923049F420E0CD
:100490009A858A89981321E02A87CE010996BBC0E4
:1004A000823049F420E09A858A89981321E02A8BCA
:1004B000CE014196B0C02D843E844F8458886D880B
:1004C0007E888F88988CEE24FF248701AA24BB2481
:1004D000650140E050E060E070E0E0E0F0E0C10184
:1004E00081709070892BE9F0E60CF71C081D191D2E
:1004F0009A01AB012A0D3B1D4C1D5D1D80E090E073
:10050000A0E0B0E0E614F7040805190520F481E046
:1005100090E0A0E0B0E0BA01A901480F591F6A1F9E
:100520007B1FAA0CBB1CCC1CDD1C97FE08C081E005
:1005300090E0A0E0B0E0A82AB92ACA2ADB2A3196C6
:10054000E032F10549F0660C771C881C991C569422
:10055000479437942794C3CFFA85EA892B893C893D
:100560008B859C85280F391F2E5F3F4F17C0CA010E
:1005700081709070892B61F016950795F794E79438
:1005800080E090E0A0E0B0E8E82AF92A0A2B1B2BD3
:1005900076956795579547952F5F3F4F77FDE7CF46
:1005A0000CC0440F551F661F771F17FD4160EE0CEE
:1005B000FF1C001F111F21503040403090E05907B0
:1005C00090E0690790E4790760F32B8F3C8FDB01A3
:1005D000CA018F779070A070B07080349105A1052A
:1005E000B10561F447FD0AC0E114F10401051105EC
:1005F00029F0405C5F4F6F4F7F4F40781A8EFE1797
:1006000011F081E08A8F4D8F5E8F6F8F78A383E02A
:10061000898FCE0149960E945D04A096E2E10C9478
:10062000750AA8E1B0E0E7E1F3E00C94650A69839C
:100630007A838B839C832D833E834F83588789E005
:10064000E82EF12CEC0EFD1ECE010196B7010E94A2
:1006500032058E010F5E1F4FCE010596B8010E9434
:1006600032058985823040F08989823028F0C701BF
:10067000B8010E94AA0501C08FEF6896E6E00C94CD
:10068000810AACE0B0E0E7E4F3E00C94690A698326
:100690007A838B839C83CE010196BE016B5F7F4F73
:1006A0000E9432058D81823061F1823050F18430B8
:1006B00021F48E81882351F12EC02F81388537FD9A
:1006C00020C06E812F3131051CF06623F9F023C064
:1006D0008EE190E0821B930B29853A854B855C85E2
:1006E00004C056954795379527958A95D2F7662386
:1006F000B1F050954095309521953F4F4F4F5F4F4A
:100700000EC020E030E040E050E009C02FEF3FEFA6
:100710004FEF5FE704C020E030E040E050E8B9016F
:10072000CA012C96E2E00C94850AA8E0B0E0EBE95F
:10073000F3E00C94610A7B018C0161157105810560
:10074000910519F482E0898360C083E089838EE19A
:10075000C82ED12CDC82CB82ED82FE820F831887DB
:10076000C801B7010E940E04FC013197F7FF3BC09E
:10077000222733272E1B3F0B57016801022E04C08E
:10078000D694C794B794A7940A94D2F740E050E067
:1007900060E070E081E090E0A0E0B0E004C0880F8D
:1007A000991FAA1FBB1F2A95D2F70197A109B1096A
:1007B0008E219F21A023B1230097A105B10521F02F
:1007C00041E050E060E070E04A295B296C297D2916
:1007D0004D835E836F8378878EE190E08E1B9F0B45
:1007E0009C838B8312C0309781F00E2E04C0EE0CD8
:1007F000FF1C001F111F0A94D2F7ED82FE820F83A7
:100800001887CE1ADF0ADC82CB821A82CE010196CB
:100810000E945D042896EAE00C947D0AEF92FF9214
:100820000F931F937B018C0180E0E81680E0F806AF
:1008300081E0080780E0180788F48FEFE816F104DC
:100840000105110531F028F088E090E0A0E0B0E06B
:1008500017C080E090E0A0E0B0E012C080E0E816B1
:1008600080E0F80680E0080781E0180728F088E1BA
:1008700090E0A0E0B0E004C080E190E0A0E0B0E053
:1008800020E230E040E050E0281B390B4A0B5B0BC4
:1008900004C016950795F794E7948A95D2F7F70167
:1008A000EF54FF4F8081281B310941095109C901CB
:1008B0001F910F91FF90EF900895DF92EF92FF92BA
:1008C0000F931F93FC01E480F58006811781D1808E
:1008D0008081823048F480E090E0A0E1B0E0E82A36
:1008E000F92A0A2B1B2BA5C0843009F49FC0823043
:1008F00021F4EE24FF24870105C0E114F104010571
:10090000110519F4E0E0F0E096C0628173819FEF79
:10091000623879070CF05BC022E83FEF261B370BEB
:100920002A3131052CF020E030E040E050E02AC0D0
:10093000B801A701022E04C0769567955795479593
:100940000A94D2F781E090E0A0E0B0E004C0880F04
:10095000991FAA1FBB1F2A95D2F70197A109B109B8
:100960008E219F21A023B1230097A105B10521F07D
:1009700081E090E0A0E0B0E09A01AB01282B392B98
:100980004A2B5B2BDA01C9018F779070A070B07091
:1009900080349105A105B10539F427FF09C0205C19
:1009A0003F4F4F4F5F4F04C0215C3F4F4F4F5F4F52
:1009B000E0E0F0E02030A0E03A07A0E04A07A0E441
:1009C0005A0710F0E1E0F0E079018A0127C06038B1
:1009D000710564F5FB01E158FF4FD801C7018F771E
:1009E0009070A070B07080349105A105B10539F404
:1009F000E7FE0DC080E490E0A0E0B0E004C08FE32B
:100A000090E0A0E0B0E0E80EF91E0A1F1B1F17FFE0
:100A100005C016950795F794E794319687E01695EB
:100A20000795F794E7948A95D1F705C0EE24FF2443
:100A30008701EFEFF0E06E2F679566276795902F9F
:100A40009F77D794DD24D7948E2F8695492F462BF8
:100A5000582F5D29B701CA011F910F91FF90EF90A8
:100A6000DF900895FC01DB01408151812281622FDA
:100A70006F7770E0221F2227221F9381892F880F12
:100A8000822B282F30E0991F9927991F11969C934C
:100A9000119721153105A9F541155105610571051C
:100AA00011F482E037C082E89FEF13969C938E93F7
:100AB00012979A01AB0167E0220F331F441F551FA5
:100AC0006A95D1F783E08C930DC0220F331F441F2A
:100AD000551F12968D919C911397019713969C9395
:100AE0008E931297203080E0380780E0480780E43A
:100AF000580758F314962D933D934D935C93179795
:100B000008952F3F310579F44115510561057105AF
:100B100019F484E08C93089564FF03C081E08C9302
:100B200012C01C9210C02F57304013963C932E9346
:100B3000129783E08C9387E0440F551F661F771F41
:100B40008A95D1F7706414964D935D936D937C9361
:100B5000179708951F93DC01FB019C91923008F4D4
:100B600047C08081823008F443C0943051F411961C
:100B70001C91843099F58181682F70E0611B7109A7
:100B80003FC0843021F0923031F48230B9F181815C
:100B9000882389F12DC011961C9111978230F1F0B4
:100BA00081811817D9F412962D913C911397828167
:100BB00093818217930794F028173907BCF0149695
:100BC0008D919D910D90BC91A02D24813581468100
:100BD0005781281739074A075B0718F4112341F09A
:100BE0000AC082179307A407B50740F4112319F030
:100BF00061E070E005C06FEF7FEF02C060E070E081
:100C0000CB011F910895AC0120E030E0FA01E20F22
:100C1000F31FE081EE2349F485B78E7F85BF85B74A
:100C2000826085BF8BB7806412C0E13049F485B71C
:100C30008B7F85BF85B7886085BF8BB7806807C00D
:100C4000E23031F484B78F7B84BF8BB780628BBF77
:100C50002F5F3F4F23303105C9F608958FB7806865
:100C60008FBF08958FB78F778FBF089582E060E0C0
:100C700040E00E94D80682E061E040E00E94D80691
:100C800084E063E041E00E94D80684E064E041E053
:100C90000E94D80681E090E00E943C0980E690E046
:100CA0000E94290981E090E060E070E00E94620902
:100CB0008CE690E00E94290908954F3FD1F58230DB
:100CC000B9F0833020F4813009F071C006C0833060
:100CD000D1F0843009F06BC021C02AB381E090E0EC
:100CE00002C0880F991F6A95E2F7282B2ABB089546
:100CF00027B381E090E002C0880F991F6A95E2F760
:100D0000282B27BB089524B381E090E002C0880F10
:100D1000991F6A95E2F7282B24BB089521B381E03F
:100D200090E002C0880F991F6A95E2F7282B21BB3B
:100D30000895442309F03BC08230B1F0833018F4A9
:100D40008130A9F505C08330D9F0843081F524C005
:100D50002AB381E090E002C0880F991F6A95E2F7FC
:100D6000809582238ABB089527B381E090E002C07A
:100D7000880F991F6A95E2F78095822387BB0895B3
:100D800024B381E090E002C0880F991F6A95E2F7D2
:100D90008095822384BB089521B381E090E002C056
:100DA000880F991F6A95E2F78095822381BB089589
:100DB0004130D1F58230B9F0833020F4813009F030
:100DC00071C006C08330D1F0843009F06BC021C0FF
:100DD0002BB381E090E002C0880F991F6A95E2F77B
:100DE000282B2BBB089528B381E090E002C0880F28
:100DF000991F6A95E2F7282B28BB089525B381E057
:100E000090E002C0880F991F6A95E2F7282B25BB56
:100E1000089522B381E090E002C0880F991F6A957F
:100E2000E2F7282B22BB0895442309F03BC082300F
:100E3000B1F0833018F48130A9F505C08330D9F0C2
:100E4000843081F524C02BB381E090E002C0880F8C
:100E5000991F6A95E2F7809582238BBB089528B38A
:100E600081E090E002C0880F991F6A95E2F78095B3
:100E7000822388BB089525B381E090E002C0880FEB
:100E8000991F6A95E2F78095822385BB089522B366
:100E900081E090E002C0880F991F6A95E2F7809583
:100EA000822382BB0895823061F0833018F4813050
:100EB000D9F405C0833039F08430B1F40DC089B362
:100EC00003C086B301C083B390E002C095958795B7
:100ED0006A95E2F78170089580B390E002C095951D
:100EE00087956A95E2F7817008958230A9F0833082
:100EF00018F4813089F505C08330C9F0843061F57C
:100F000021C02BB381E090E002C0880F991F6A9541
:100F1000E2F728272BBB089528B381E090E002C0B8
:100F2000880F991F6A95E2F7282728BB089525B3F3
:100F300081E090E002C0880F991F6A95E2F72827A8
:100F400025BB089522B381E090E002C0880F991F6D
:100F50006A95E2F7282722BB0895823061F083303A
:100F600018F4813069F405C0833039F0843041F4DD
:100F700006C06BBB089568BB089565BB089562BB4E
:100F80000895823061F0833018F4813069F405C02F
:100F9000833039F0843041F406C06ABB089567BBE2
:100FA000089564BB089561BB0895823099F0833041
:100FB00018F4813051F505C08330A9F0843029F54B
:100FC0001BC0662319F48AB38F7002C08AB3806F86
:100FD0008ABB0895662319F487B38F7002C087B364
:100FE000806F87BB0895662319F484B38F7002C0A5
:100FF00084B3806F84BB0895662321F481B38F701E
:1010000081BB089581B3806F81BB0895823099F0D0
:10101000833018F4813051F505C08330A9F0843055
:1010200029F51BC0662319F48AB3807F02C08AB3F6
:101030008F608ABB0895662319F487B3807F02C04E
:1010400087B38F6087BB0895662319F484B3807FCC
:1010500002C084B38F6084BB0895662321F481B3FA
:10106000807F81BB089581B38F6081BB08958230FA
:1010700099F0833018F4813051F505C08330A9F020
:10108000843029F51BC0662319F48BB38F7002C01E
:101090008BB3806F8BBB0895662319F488B38F7070
:1010A00002C088B3806F88BB0895662319F485B3A6
:1010B0008F7002C085B3806F85BB0895662321F4CD
:1010C00082B38F7082BB089582B3806F82BB089514
:1010D000823099F0833018F4813051F505C08330A7
:1010E000A9F0843029F51BC0662319F48BB3807FE7
:1010F00002C08BB38F608BBB0895662319F488B34D
:10110000807F02C088B38F6088BB0895662319F47E
:1011100085B3807F02C085B38F6085BB0895662349
:1011200021F482B3807F82BB089582B38F6082BB3B
:1011300008953E9A3F983D98379A359A339830985B
:101140003198329A089597B1907E97B997B1982BBC
:1011500097B9369A349BFECF349A24B135B1C90180
:101160000895A0E0B0E0BC01CD010E94950320E00D
:1011700030E040E85AE30E94170220E030E040EA05
:1011800050E40E94170220E030E048EC52E40E9454
:1011900017020E944100CB0108950F931F93182F4F
:1011A00084E065E041E00E94D80684E066E040E02B
:1011B0000E94D80683E0612F0E94AD0784E067E0BB
:1011C00041E00E94D80600ED17E0C8010197F1F751
:1011D00084E067E040E00E94D806C8010197F1F77B
:1011E0001F910F910895CF93DF939C01C0E0D0E051
:1011F00017C0CE0153E0880F991F5A95E1F7CC0F25
:10120000DD1FC80FD91FC9016AE070E00E94450ABE
:10121000C80FD91FC9016AE070E00E94450A9B010E
:101220002115310531F710C0CE016AE070E00E944F
:10123000450A482FCE016AE070E00E94450AEB01A2
:10124000842F805D0E94CD08209771F7DF91CF91A8
:1012500008951F93CF93DF93EC0110E003C00E9429
:10126000CD081F5FFE01E10FF11D80818823B9F7D2
:10127000DF91CF911F9108950F931F93182F84E052
:1012800065E040E00E94D80684E066E040E00E940D
:10129000D80683E0612F0E94AD0784E067E041E05B
:1012A0000E94D80600ED17E0C8010197F1F784E02D
:1012B00067E040E00E94D806C8010197F1F71F914E
:1012C0000F910895882329F4862F80580E943C09A5
:1012D0000895813021F4862F80540E943C0908959E
:1012E0000F931F9383E06FEF0E94C10784E065E0D6
:1012F0004FEF0E945D0684E066E04FEF0E945D06BE
:1013000084E067E04FEF0E945D0680E991E028EC01
:1013100030E0F9013197F1F70197D9F788E390E0D0
:101320000E943C0900ED17E0C8010197F1F78FE03A
:1013300090E00E943C09C8010197F1F781E090E03C
:101340000E943C0980EA9FE00197F1F71F910F91FD
:101350000895DF93CF9300D0CDB7DEB70E94700918
:101360000E9499080E942E061A821982CE010196C7
:101370000E94030684E062E040E00E945D0684E093
:1013800062E041E00E94D80682E060E04FEF0E94F8
:101390005D0682E061E04FEF0E945D0684E063E05D
:1013A0004FEF0E945D0684E064E04FEF0E945D060F
:1013B0000F900F90CF91DF910895EF92FF920F93CE
:1013C0001F93CF93DF930E94A90984E063E041E07B
:1013D0000E94D806CFEFDFEF80E2E82E8EE4F82EF1
:1013E00080E00E94A3080E94B1088C018C179D0721
:1013F00009F447C08432910598F481E00E943C09C9
:1014000080E060E00E9462098AE790E00E9429097A
:10141000C8010E94F30888E890E00E94290930C0C2
:1014200084E062E00E945307813019F50E943C0974
:101430008AE890E00E94290981E060E00E94620948
:1014400089E990E00E94290984E063E040E00E947D
:10145000D80684E064E040E00E94D80682E060E0C4
:1014600041E00E94D80682E061E041E00E94D80697
:1014700007C0882329F484E062E00E945307F9CF73
:10148000E801C7010197F1F7ABCFAA1BBB1B51E1E4
:1014900007C0AA1FBB1FA617B70710F0A61BB70BE4
:1014A000881F991F5A95A9F780959095BC01CD0189
:1014B00008952F923F924F925F926F927F928F92F8
:1014C0009F92AF92BF92CF92DF92EF92FF920F93D3
:1014D0001F93CF93DF93CDB7DEB7CA1BDB0B0FB6DD
:1014E000F894DEBF0FBECDBF09942A88398848889A
:1014F0005F846E847D848C849B84AA84B984C88430
:10150000DF80EE80FD800C811B81AA81B981CE0F26
:10151000D11D0FB6F894DEBF0FBECDBFED0108950B
:04152000F894FFCF6D
:10152400454D45204D4F4445204F4E00594F5520C1
:101534004152452053414645210054656D70657202
:1015440061747572653D2000430046495245212C63
:10155400205455524E204F4E00454D455247454E5E
:101564004359204D4F444521000000000000000075
:10157400000001020203030303040404040404043A
:101584000405050505050505050505050505050508
:1015940005060606060606060606060606060606E8
:1015A40006060606060606060606060606060606D7
:1015B40006070707070707070707070707070707B8
:1015C40007070707070707070707070707070707A7
:1015D4000707070707070707070707070707070797
:1015E4000707070707070707070707070707070787
:1015F4000708080808080808080808080808080868
:101604000808080808080808080808080808080856
:101614000808080808080808080808080808080846
:101624000808080808080808080808080808080836
:101634000808080808080808080808080808080826
:101644000808080808080808080808080808080816
:101654000808080808080808080808080808080806
:1016640008080808080808080808080808080808F6
:0216740008006C
:00000001FF
